{
  "contractName": "CryptoTruffles",
  "abi": [
    {
      "constant": true,
      "inputs": [
        {
          "name": "interfaceId",
          "type": "bytes4"
        }
      ],
      "name": "supportsInterface",
      "outputs": [
        {
          "name": "",
          "type": "bool"
        }
      ],
      "payable": false,
      "stateMutability": "view",
      "type": "function",
      "signature": "0x01ffc9a7"
    },
    {
      "constant": true,
      "inputs": [],
      "name": "name",
      "outputs": [
        {
          "name": "",
          "type": "string"
        }
      ],
      "payable": false,
      "stateMutability": "view",
      "type": "function",
      "signature": "0x06fdde03"
    },
    {
      "constant": true,
      "inputs": [
        {
          "name": "tokenId",
          "type": "uint256"
        }
      ],
      "name": "getApproved",
      "outputs": [
        {
          "name": "",
          "type": "address"
        }
      ],
      "payable": false,
      "stateMutability": "view",
      "type": "function",
      "signature": "0x081812fc"
    },
    {
      "constant": false,
      "inputs": [
        {
          "name": "to",
          "type": "address"
        },
        {
          "name": "tokenId",
          "type": "uint256"
        }
      ],
      "name": "approve",
      "outputs": [],
      "payable": false,
      "stateMutability": "nonpayable",
      "type": "function",
      "signature": "0x095ea7b3"
    },
    {
      "constant": false,
      "inputs": [
        {
          "name": "from",
          "type": "address"
        },
        {
          "name": "to",
          "type": "address"
        },
        {
          "name": "tokenId",
          "type": "uint256"
        }
      ],
      "name": "transferFrom",
      "outputs": [],
      "payable": false,
      "stateMutability": "nonpayable",
      "type": "function",
      "signature": "0x23b872dd"
    },
    {
      "constant": false,
      "inputs": [
        {
          "name": "from",
          "type": "address"
        },
        {
          "name": "to",
          "type": "address"
        },
        {
          "name": "tokenId",
          "type": "uint256"
        }
      ],
      "name": "safeTransferFrom",
      "outputs": [],
      "payable": false,
      "stateMutability": "nonpayable",
      "type": "function",
      "signature": "0x42842e0e"
    },
    {
      "constant": true,
      "inputs": [
        {
          "name": "tokenId",
          "type": "uint256"
        }
      ],
      "name": "ownerOf",
      "outputs": [
        {
          "name": "",
          "type": "address"
        }
      ],
      "payable": false,
      "stateMutability": "view",
      "type": "function",
      "signature": "0x6352211e"
    },
    {
      "constant": true,
      "inputs": [
        {
          "name": "owner",
          "type": "address"
        }
      ],
      "name": "balanceOf",
      "outputs": [
        {
          "name": "",
          "type": "uint256"
        }
      ],
      "payable": false,
      "stateMutability": "view",
      "type": "function",
      "signature": "0x70a08231"
    },
    {
      "constant": false,
      "inputs": [],
      "name": "renounceOwnership",
      "outputs": [],
      "payable": false,
      "stateMutability": "nonpayable",
      "type": "function",
      "signature": "0x715018a6"
    },
    {
      "constant": true,
      "inputs": [],
      "name": "owner",
      "outputs": [
        {
          "name": "",
          "type": "address"
        }
      ],
      "payable": false,
      "stateMutability": "view",
      "type": "function",
      "signature": "0x8da5cb5b"
    },
    {
      "constant": true,
      "inputs": [],
      "name": "isOwner",
      "outputs": [
        {
          "name": "",
          "type": "bool"
        }
      ],
      "payable": false,
      "stateMutability": "view",
      "type": "function",
      "signature": "0x8f32d59b"
    },
    {
      "constant": true,
      "inputs": [],
      "name": "symbol",
      "outputs": [
        {
          "name": "",
          "type": "string"
        }
      ],
      "payable": false,
      "stateMutability": "view",
      "type": "function",
      "signature": "0x95d89b41"
    },
    {
      "constant": false,
      "inputs": [
        {
          "name": "to",
          "type": "address"
        },
        {
          "name": "approved",
          "type": "bool"
        }
      ],
      "name": "setApprovalForAll",
      "outputs": [],
      "payable": false,
      "stateMutability": "nonpayable",
      "type": "function",
      "signature": "0xa22cb465"
    },
    {
      "constant": false,
      "inputs": [
        {
          "name": "from",
          "type": "address"
        },
        {
          "name": "to",
          "type": "address"
        },
        {
          "name": "tokenId",
          "type": "uint256"
        },
        {
          "name": "_data",
          "type": "bytes"
        }
      ],
      "name": "safeTransferFrom",
      "outputs": [],
      "payable": false,
      "stateMutability": "nonpayable",
      "type": "function",
      "signature": "0xb88d4fde"
    },
    {
      "constant": true,
      "inputs": [
        {
          "name": "owner",
          "type": "address"
        },
        {
          "name": "operator",
          "type": "address"
        }
      ],
      "name": "isApprovedForAll",
      "outputs": [
        {
          "name": "",
          "type": "bool"
        }
      ],
      "payable": false,
      "stateMutability": "view",
      "type": "function",
      "signature": "0xe985e9c5"
    },
    {
      "constant": false,
      "inputs": [
        {
          "name": "newOwner",
          "type": "address"
        }
      ],
      "name": "transferOwnership",
      "outputs": [],
      "payable": false,
      "stateMutability": "nonpayable",
      "type": "function",
      "signature": "0xf2fde38b"
    },
    {
      "inputs": [],
      "payable": false,
      "stateMutability": "nonpayable",
      "type": "constructor",
      "signature": "constructor"
    },
    {
      "anonymous": false,
      "inputs": [
        {
          "indexed": true,
          "name": "previousOwner",
          "type": "address"
        },
        {
          "indexed": true,
          "name": "newOwner",
          "type": "address"
        }
      ],
      "name": "OwnershipTransferred",
      "type": "event",
      "signature": "0x8be0079c531659141344cd1fd0a4f28419497f9722a3daafe3b4186f6b6457e0"
    },
    {
      "anonymous": false,
      "inputs": [
        {
          "indexed": true,
          "name": "from",
          "type": "address"
        },
        {
          "indexed": true,
          "name": "to",
          "type": "address"
        },
        {
          "indexed": true,
          "name": "tokenId",
          "type": "uint256"
        }
      ],
      "name": "Transfer",
      "type": "event",
      "signature": "0xddf252ad1be2c89b69c2b068fc378daa952ba7f163c4a11628f55a4df523b3ef"
    },
    {
      "anonymous": false,
      "inputs": [
        {
          "indexed": true,
          "name": "owner",
          "type": "address"
        },
        {
          "indexed": true,
          "name": "approved",
          "type": "address"
        },
        {
          "indexed": true,
          "name": "tokenId",
          "type": "uint256"
        }
      ],
      "name": "Approval",
      "type": "event",
      "signature": "0x8c5be1e5ebec7d5bd14f71427d1e84f3dd0314c0f7b2291e5b200ac8c7c3b925"
    },
    {
      "anonymous": false,
      "inputs": [
        {
          "indexed": true,
          "name": "owner",
          "type": "address"
        },
        {
          "indexed": true,
          "name": "operator",
          "type": "address"
        },
        {
          "indexed": false,
          "name": "approved",
          "type": "bool"
        }
      ],
      "name": "ApprovalForAll",
      "type": "event",
      "signature": "0x17307eab39ab6107e8899845ad3d59bd9653f200f220920489ca2b5937696c31"
    },
    {
      "constant": false,
      "inputs": [
        {
          "name": "_title",
          "type": "string"
        },
        {
          "name": "_color",
          "type": "string"
        },
        {
          "name": "_emotion",
          "type": "uint256"
        }
      ],
      "name": "mint",
      "outputs": [],
      "payable": false,
      "stateMutability": "nonpayable",
      "type": "function",
      "signature": "0xd41d9a27"
    },
    {
      "constant": true,
      "inputs": [],
      "name": "getTruffleIds",
      "outputs": [
        {
          "name": "",
          "type": "uint256[]"
        }
      ],
      "payable": false,
      "stateMutability": "view",
      "type": "function",
      "signature": "0xe50657c4"
    },
    {
      "constant": true,
      "inputs": [
        {
          "name": "_truffleId",
          "type": "uint256"
        }
      ],
      "name": "getTruffle",
      "outputs": [
        {
          "name": "title",
          "type": "string"
        },
        {
          "name": "color",
          "type": "string"
        },
        {
          "name": "emotion",
          "type": "uint8"
        }
      ],
      "payable": false,
      "stateMutability": "view",
      "type": "function",
      "signature": "0xa727ddb9"
    },
    {
      "constant": true,
      "inputs": [
        {
          "name": "_owner",
          "type": "address"
        }
      ],
      "name": "tokensOfOwner",
      "outputs": [
        {
          "name": "ownerTokens",
          "type": "uint256[]"
        }
      ],
      "payable": false,
      "stateMutability": "view",
      "type": "function",
      "signature": "0x8462151c"
    }
  ],
  "bytecode": "0x60806040526040805190810160405280600d81526020017f43727970746f54727566666c65000000000000000000000000000000000000008152506006908051906020019062000051929190620002aa565b506040805190810160405280600381526020017f5452460000000000000000000000000000000000000000000000000000000000815250600790805190602001906200009f929190620002aa565b50348015620000ad57600080fd5b50620000eb6301ffc9a77c010000000000000000000000000000000000000000000000000000000002620001ec640100000000026401000000009004565b620001286380ac58cd7c010000000000000000000000000000000000000000000000000000000002620001ec640100000000026401000000009004565b33600560006101000a81548173ffffffffffffffffffffffffffffffffffffffff021916908373ffffffffffffffffffffffffffffffffffffffff160217905550600560009054906101000a900473ffffffffffffffffffffffffffffffffffffffff1673ffffffffffffffffffffffffffffffffffffffff16600073ffffffffffffffffffffffffffffffffffffffff167f8be0079c531659141344cd1fd0a4f28419497f9722a3daafe3b4186f6b6457e060405160405180910390a362000359565b63ffffffff7c010000000000000000000000000000000000000000000000000000000002817bffffffffffffffffffffffffffffffffffffffffffffffffffffffff1916141515156200023e57600080fd5b6001600080837bffffffffffffffffffffffffffffffffffffffffffffffffffffffff19167bffffffffffffffffffffffffffffffffffffffffffffffffffffffff1916815260200190815260200160002060006101000a81548160ff02191690831515021790555050565b828054600181600116156101000203166002900490600052602060002090601f016020900481019282601f10620002ed57805160ff19168380011785556200031e565b828001600101855582156200031e579182015b828111156200031d57825182559160200191906001019062000300565b5b5090506200032d919062000331565b5090565b6200035691905b808211156200035257600081600090555060010162000338565b5090565b90565b61210180620003696000396000f3fe608060405234801561001057600080fd5b5060043610610149576000357c0100000000000000000000000000000000000000000000000000000000900480638da5cb5b116100ca578063b88d4fde1161008e578063b88d4fde1461079e578063d41d9a27146108a3578063e50657c4146109ff578063e985e9c514610a5e578063f2fde38b14610ada57610149565b80638da5cb5b146105375780638f32d59b1461058157806395d89b41146105a3578063a22cb46514610626578063a727ddb91461067657610149565b806342842e0e1161011157806342842e0e146103605780636352211e146103ce57806370a082311461043c578063715018a6146104945780638462151c1461049e57610149565b806301ffc9a71461014e57806306fdde03146101b3578063081812fc14610236578063095ea7b3146102a457806323b872dd146102f2575b600080fd5b6101996004803603602081101561016457600080fd5b8101908080357bffffffffffffffffffffffffffffffffffffffffffffffffffffffff19169060200190929190505050610b1e565b604051808215151515815260200191505060405180910390f35b6101bb610b85565b6040518080602001828103825283818151815260200191508051906020019080838360005b838110156101fb5780820151818401526020810190506101e0565b50505050905090810190601f1680156102285780820380516001836020036101000a031916815260200191505b509250505060405180910390f35b6102626004803603602081101561024c57600080fd5b8101908080359060200190929190505050610c23565b604051808273ffffffffffffffffffffffffffffffffffffffff1673ffffffffffffffffffffffffffffffffffffffff16815260200191505060405180910390f35b6102f0600480360360408110156102ba57600080fd5b81019080803573ffffffffffffffffffffffffffffffffffffffff16906020019092919080359060200190929190505050610c74565b005b61035e6004803603606081101561030857600080fd5b81019080803573ffffffffffffffffffffffffffffffffffffffff169060200190929190803573ffffffffffffffffffffffffffffffffffffffff16906020019092919080359060200190929190505050610db9565b005b6103cc6004803603606081101561037657600080fd5b81019080803573ffffffffffffffffffffffffffffffffffffffff169060200190929190803573ffffffffffffffffffffffffffffffffffffffff16906020019092919080359060200190929190505050610dde565b005b6103fa600480360360208110156103e457600080fd5b8101908080359060200190929190505050610dff565b604051808273ffffffffffffffffffffffffffffffffffffffff1673ffffffffffffffffffffffffffffffffffffffff16815260200191505060405180910390f35b61047e6004803603602081101561045257600080fd5b81019080803573ffffffffffffffffffffffffffffffffffffffff169060200190929190505050610e7d565b6040518082815260200191505060405180910390f35b61049c610f08565b005b6104e0600480360360208110156104b457600080fd5b81019080803573ffffffffffffffffffffffffffffffffffffffff169060200190929190505050610fdc565b6040518080602001828103825283818151815260200191508051906020019060200280838360005b83811015610523578082015181840152602081019050610508565b505050509050019250505060405180910390f35b61053f6110fb565b604051808273ffffffffffffffffffffffffffffffffffffffff1673ffffffffffffffffffffffffffffffffffffffff16815260200191505060405180910390f35b610589611125565b604051808215151515815260200191505060405180910390f35b6105ab61117d565b6040518080602001828103825283818151815260200191508051906020019080838360005b838110156105eb5780820151818401526020810190506105d0565b50505050905090810190601f1680156106185780820380516001836020036101000a031916815260200191505b509250505060405180910390f35b6106746004803603604081101561063c57600080fd5b81019080803573ffffffffffffffffffffffffffffffffffffffff16906020019092919080351515906020019092919050505061121b565b005b6106a26004803603602081101561068c57600080fd5b8101908080359060200190929190505050611357565b6040518080602001806020018460038111156106ba57fe5b60ff168152602001838103835286818151815260200191508051906020019080838360005b838110156106fa5780820151818401526020810190506106df565b50505050905090810190601f1680156107275780820380516001836020036101000a031916815260200191505b50838103825285818151815260200191508051906020019080838360005b83811015610760578082015181840152602081019050610745565b50505050905090810190601f16801561078d5780820380516001836020036101000a031916815260200191505b509550505050505060405180910390f35b6108a1600480360360808110156107b457600080fd5b81019080803573ffffffffffffffffffffffffffffffffffffffff169060200190929190803573ffffffffffffffffffffffffffffffffffffffff169060200190929190803590602001909291908035906020019064010000000081111561081b57600080fd5b82018360208201111561082d57600080fd5b8035906020019184600183028401116401000000008311171561084f57600080fd5b91908080601f016020809104026020016040519081016040528093929190818152602001838380828437600081840152601f19601f82011690508083019250505050505050919291929050505061151d565b005b6109fd600480360360608110156108b957600080fd5b81019080803590602001906401000000008111156108d657600080fd5b8201836020820111156108e857600080fd5b8035906020019184600183028401116401000000008311171561090a57600080fd5b91908080601f016020809104026020016040519081016040528093929190818152602001838380828437600081840152601f19601f8201169050808301925050505050505091929192908035906020019064010000000081111561096d57600080fd5b82018360208201111561097f57600080fd5b803590602001918460018302840111640100000000831117156109a157600080fd5b91908080601f016020809104026020016040519081016040528093929190818152602001838380828437600081840152601f19601f82011690508083019250505050505050919291929080359060200190929190505050611545565b005b610a07611685565b6040518080602001828103825283818151815260200191508051906020019060200280838360005b83811015610a4a578082015181840152602081019050610a2f565b505050509050019250505060405180910390f35b610ac060048036036040811015610a7457600080fd5b81019080803573ffffffffffffffffffffffffffffffffffffffff169060200190929190803573ffffffffffffffffffffffffffffffffffffffff1690602001909291905050506116dd565b604051808215151515815260200191505060405180910390f35b610b1c60048036036020811015610af057600080fd5b81019080803573ffffffffffffffffffffffffffffffffffffffff169060200190929190505050611771565b005b6000806000837bffffffffffffffffffffffffffffffffffffffffffffffffffffffff19167bffffffffffffffffffffffffffffffffffffffffffffffffffffffff1916815260200190815260200160002060009054906101000a900460ff169050919050565b60068054600181600116156101000203166002900480601f016020809104026020016040519081016040528092919081815260200182805460018160011615610100020316600290048015610c1b5780601f10610bf057610100808354040283529160200191610c1b565b820191906000526020600020905b815481529060010190602001808311610bfe57829003601f168201915b505050505081565b6000610c2e82611790565b1515610c3957600080fd5b6002600083815260200190815260200160002060009054906101000a900473ffffffffffffffffffffffffffffffffffffffff169050919050565b6000610c7f82610dff565b90508073ffffffffffffffffffffffffffffffffffffffff168373ffffffffffffffffffffffffffffffffffffffff1614151515610cbc57600080fd5b8073ffffffffffffffffffffffffffffffffffffffff163373ffffffffffffffffffffffffffffffffffffffff161480610cfc5750610cfb81336116dd565b5b1515610d0757600080fd5b826002600084815260200190815260200160002060006101000a81548173ffffffffffffffffffffffffffffffffffffffff021916908373ffffffffffffffffffffffffffffffffffffffff160217905550818373ffffffffffffffffffffffffffffffffffffffff168273ffffffffffffffffffffffffffffffffffffffff167f8c5be1e5ebec7d5bd14f71427d1e84f3dd0314c0f7b2291e5b200ac8c7c3b92560405160405180910390a4505050565b610dc33382611802565b1515610dce57600080fd5b610dd9838383611897565b505050565b610dfa838383602060405190810160405280600081525061151d565b505050565b6000806001600084815260200190815260200160002060009054906101000a900473ffffffffffffffffffffffffffffffffffffffff169050600073ffffffffffffffffffffffffffffffffffffffff168173ffffffffffffffffffffffffffffffffffffffff1614151515610e7457600080fd5b80915050919050565b60008073ffffffffffffffffffffffffffffffffffffffff168273ffffffffffffffffffffffffffffffffffffffff1614151515610eba57600080fd5b610f01600360008473ffffffffffffffffffffffffffffffffffffffff1673ffffffffffffffffffffffffffffffffffffffff168152602001908152602001600020611a5e565b9050919050565b610f10611125565b1515610f1b57600080fd5b600073ffffffffffffffffffffffffffffffffffffffff16600560009054906101000a900473ffffffffffffffffffffffffffffffffffffffff1673ffffffffffffffffffffffffffffffffffffffff167f8be0079c531659141344cd1fd0a4f28419497f9722a3daafe3b4186f6b6457e060405160405180910390a36000600560006101000a81548173ffffffffffffffffffffffffffffffffffffffff021916908373ffffffffffffffffffffffffffffffffffffffff160217905550565b60606000610fe983610e7d565b9050600081141561102d5760006040519080825280602002602001820160405280156110245781602001602082028038833980820191505090505b509150506110f6565b60608160405190808252806020026020018201604052801561105e5781602001602082028038833980820191505090505b50905060006008805490509050600080905060008090505b828110156110ed578673ffffffffffffffffffffffffffffffffffffffff1661109e82610dff565b73ffffffffffffffffffffffffffffffffffffffff1614156110e0578084838151811015156110c957fe5b906020019060200201818152505081806001019250505b8080600101915050611076565b83955050505050505b919050565b6000600560009054906101000a900473ffffffffffffffffffffffffffffffffffffffff16905090565b6000600560009054906101000a900473ffffffffffffffffffffffffffffffffffffffff1673ffffffffffffffffffffffffffffffffffffffff163373ffffffffffffffffffffffffffffffffffffffff1614905090565b60078054600181600116156101000203166002900480601f0160208091040260200160405190810160405280929190818152602001828054600181600116156101000203166002900480156112135780601f106111e857610100808354040283529160200191611213565b820191906000526020600020905b8154815290600101906020018083116111f657829003601f168201915b505050505081565b3373ffffffffffffffffffffffffffffffffffffffff168273ffffffffffffffffffffffffffffffffffffffff161415151561125657600080fd5b80600460003373ffffffffffffffffffffffffffffffffffffffff1673ffffffffffffffffffffffffffffffffffffffff16815260200190815260200160002060008473ffffffffffffffffffffffffffffffffffffffff1673ffffffffffffffffffffffffffffffffffffffff16815260200190815260200160002060006101000a81548160ff0219169083151502179055508173ffffffffffffffffffffffffffffffffffffffff163373ffffffffffffffffffffffffffffffffffffffff167f17307eab39ab6107e8899845ad3d59bd9653f200f220920489ca2b5937696c3183604051808215151515815260200191505060405180910390a35050565b6060806000611364612003565b60088581548110151561137357fe5b906000526020600020906003020160606040519081016040529081600082018054600181600116156101000203166002900480601f0160208091040260200160405190810160405280929190818152602001828054600181600116156101000203166002900480156114265780601f106113fb57610100808354040283529160200191611426565b820191906000526020600020905b81548152906001019060200180831161140957829003601f168201915b50505050508152602001600182018054600181600116156101000203166002900480601f0160208091040260200160405190810160405280929190818152602001828054600181600116156101000203166002900480156114c85780601f1061149d576101008083540402835291602001916114c8565b820191906000526020600020905b8154815290600101906020018083116114ab57829003601f168201915b505050505081526020016002820160009054906101000a900460ff1660038111156114ef57fe5b60038111156114fa57fe5b815250509050806000015193508060200151925080604001519150509193909250565b611528848484610db9565b61153484848484611a6c565b151561153f57600080fd5b50505050565b61154d611125565b151561155857600080fd5b8060038081111561156557fe5b1015151561157257600080fd5b61157a612003565b60606040519081016040528085815260200184815260200183600381111561159e57fe5b60038111156115a957fe5b8152509050600060016008839080600181540180825580915050906001820390600052602060002090600302016000909192909190915060008201518160000190805190602001906115fc929190612030565b506020820151816001019080519060200190611619929190612030565b5060408201518160020160006101000a81548160ff0219169083600381111561163e57fe5b021790555050500390506116523382611c8f565b60098190806001815401808255809150509060018203906000526020600020016000909192909190915055505050505050565b606060098054806020026020016040519081016040528092919081815260200182805480156116d357602002820191906000526020600020905b8154815260200190600101908083116116bf575b5050505050905090565b6000600460008473ffffffffffffffffffffffffffffffffffffffff1673ffffffffffffffffffffffffffffffffffffffff16815260200190815260200160002060008373ffffffffffffffffffffffffffffffffffffffff1673ffffffffffffffffffffffffffffffffffffffff16815260200190815260200160002060009054906101000a900460ff16905092915050565b611779611125565b151561178457600080fd5b61178d81611dd9565b50565b6000806001600084815260200190815260200160002060009054906101000a900473ffffffffffffffffffffffffffffffffffffffff169050600073ffffffffffffffffffffffffffffffffffffffff168173ffffffffffffffffffffffffffffffffffffffff161415915050919050565b60008061180e83610dff565b90508073ffffffffffffffffffffffffffffffffffffffff168473ffffffffffffffffffffffffffffffffffffffff16148061187d57508373ffffffffffffffffffffffffffffffffffffffff1661186584610c23565b73ffffffffffffffffffffffffffffffffffffffff16145b8061188e575061188d81856116dd565b5b91505092915050565b8273ffffffffffffffffffffffffffffffffffffffff166118b782610dff565b73ffffffffffffffffffffffffffffffffffffffff161415156118d957600080fd5b600073ffffffffffffffffffffffffffffffffffffffff168273ffffffffffffffffffffffffffffffffffffffff161415151561191557600080fd5b61191e81611ed5565b611965600360008573ffffffffffffffffffffffffffffffffffffffff1673ffffffffffffffffffffffffffffffffffffffff168152602001908152602001600020611f95565b6119ac600360008473ffffffffffffffffffffffffffffffffffffffff1673ffffffffffffffffffffffffffffffffffffffff168152602001908152602001600020611fb8565b816001600083815260200190815260200160002060006101000a81548173ffffffffffffffffffffffffffffffffffffffff021916908373ffffffffffffffffffffffffffffffffffffffff160217905550808273ffffffffffffffffffffffffffffffffffffffff168473ffffffffffffffffffffffffffffffffffffffff167fddf252ad1be2c89b69c2b068fc378daa952ba7f163c4a11628f55a4df523b3ef60405160405180910390a4505050565b600081600001549050919050565b6000611a8d8473ffffffffffffffffffffffffffffffffffffffff16611fce565b1515611a9c5760019050611c87565b60008473ffffffffffffffffffffffffffffffffffffffff1663150b7a02338887876040518563ffffffff167c0100000000000000000000000000000000000000000000000000000000028152600401808573ffffffffffffffffffffffffffffffffffffffff1673ffffffffffffffffffffffffffffffffffffffff1681526020018473ffffffffffffffffffffffffffffffffffffffff1673ffffffffffffffffffffffffffffffffffffffff16815260200183815260200180602001828103825283818151815260200191508051906020019080838360005b83811015611b93578082015181840152602081019050611b78565b50505050905090810190601f168015611bc05780820380516001836020036101000a031916815260200191505b5095505050505050602060405180830381600087803b158015611be257600080fd5b505af1158015611bf6573d6000803e3d6000fd5b505050506040513d6020811015611c0c57600080fd5b8101908080519060200190929190505050905063150b7a027c0100000000000000000000000000000000000000000000000000000000027bffffffffffffffffffffffffffffffffffffffffffffffffffffffff1916817bffffffffffffffffffffffffffffffffffffffffffffffffffffffff1916149150505b949350505050565b600073ffffffffffffffffffffffffffffffffffffffff168273ffffffffffffffffffffffffffffffffffffffff1614151515611ccb57600080fd5b611cd481611790565b151515611ce057600080fd5b816001600083815260200190815260200160002060006101000a81548173ffffffffffffffffffffffffffffffffffffffff021916908373ffffffffffffffffffffffffffffffffffffffff160217905550611d79600360008473ffffffffffffffffffffffffffffffffffffffff1673ffffffffffffffffffffffffffffffffffffffff168152602001908152602001600020611fb8565b808273ffffffffffffffffffffffffffffffffffffffff16600073ffffffffffffffffffffffffffffffffffffffff167fddf252ad1be2c89b69c2b068fc378daa952ba7f163c4a11628f55a4df523b3ef60405160405180910390a45050565b600073ffffffffffffffffffffffffffffffffffffffff168173ffffffffffffffffffffffffffffffffffffffff1614151515611e1557600080fd5b8073ffffffffffffffffffffffffffffffffffffffff16600560009054906101000a900473ffffffffffffffffffffffffffffffffffffffff1673ffffffffffffffffffffffffffffffffffffffff167f8be0079c531659141344cd1fd0a4f28419497f9722a3daafe3b4186f6b6457e060405160405180910390a380600560006101000a81548173ffffffffffffffffffffffffffffffffffffffff021916908373ffffffffffffffffffffffffffffffffffffffff16021790555050565b600073ffffffffffffffffffffffffffffffffffffffff166002600083815260200190815260200160002060009054906101000a900473ffffffffffffffffffffffffffffffffffffffff1673ffffffffffffffffffffffffffffffffffffffff16141515611f925760006002600083815260200190815260200160002060006101000a81548173ffffffffffffffffffffffffffffffffffffffff021916908373ffffffffffffffffffffffffffffffffffffffff1602179055505b50565b611fad60018260000154611fe190919063ffffffff16565b816000018190555050565b6001816000016000828254019250508190555050565b600080823b905060008111915050919050565b6000828211151515611ff257600080fd5b600082840390508091505092915050565b60606040519081016040528060608152602001606081526020016000600381111561202a57fe5b81525090565b828054600181600116156101000203166002900490600052602060002090601f016020900481019282601f1061207157805160ff191683800117855561209f565b8280016001018555821561209f579182015b8281111561209e578251825591602001919060010190612083565b5b5090506120ac91906120b0565b5090565b6120d291905b808211156120ce5760008160009055506001016120b6565b5090565b9056fea165627a7a72305820cad84a90770199c7024e79104897ebdd682d480edcc5df64b93cc7783f487d0c0029",
  "source": "pragma solidity ^0.5.2;\n\nimport '../node_modules/openzeppelin-solidity/contracts/token/ERC721/ERC721.sol';\nimport '../node_modules/openzeppelin-solidity/contracts/ownership/Ownable.sol';\n\ncontract CryptoTruffles is ERC721, Ownable {\n  string public name = \"CryptoTruffle\";\n  string public symbol = \"TRF\";\n\n  // Array to store the truffles\n  Truffle[] truffles;\n  uint[] truffleIds;\n\n  constructor() public {\n  }\n\n  // Enum with the different emotions of the truffle\n  enum Emotion { HAPPY, LAUGHING, WINKING, COOL }\n\n  // Struct containing the details of the truffle\n  struct Truffle {\n    string title;\n    string color;\n    Emotion emotion;\n  }\n\n  /**\n  * @dev Mints a fresh new Truffle\n  * @param _title string with the title / name of the truffle\n  * @param _color string (hex / css color name) of the truffle\n  * @param _emotion uint256 indidcating the emotion of the truffle\n  */\n  function mint(string memory _title, string memory _color, uint _emotion) public onlyOwner {\n    require(uint(Emotion.COOL) >= _emotion);\n\n    Truffle memory _truffle = Truffle({ title: _title, color: _color, emotion: Emotion(_emotion) });\n    uint _truffleId = truffles.push(_truffle) - 1;\n\n    _mint(msg.sender, _truffleId);\n    truffleIds.push(_truffleId);\n  }\n\n  /**\n  * @dev Returns the identifiers of the minted Truffles\n  * @return  array of uints\n  */\n  function getTruffleIds() public view returns (uint[] memory) {\n    return truffleIds;\n  }\n\n  /**\n  * @dev Gets the details of the requested Truffle\n  * @param _truffleId uint256 ID of the truffle\n  * @return  title (name), color and emotion of the truffle\n  */\n  function getTruffle(uint _truffleId) public view returns (string memory title, string memory color, Emotion emotion) {\n    Truffle memory _truffle = truffles[_truffleId];\n\n    title = _truffle.title;\n    color = _truffle.color;\n    emotion = _truffle.emotion;\n  }\n\n  ///  https://github.com/cryptocopycats/awesome-cryptokitties\n  /// @notice Returns a list of all Truffle IDs assigned to an address.\n  /// @param _owner The owner whose Truffles we are interested in.\n  /// @dev This method MUST NEVER be called by smart contract code. First, it's fairly\n  ///  expensive (it walks the entire Truffle array looking for cats belonging to owner),\n  ///  but it also returns a dynamic array, which is only supported for web3 calls, and\n  ///  not contract-to-contract calls.\n  function tokensOfOwner(address _owner) external view returns(uint256[] memory ownerTokens) {\n      uint256 tokenCount = balanceOf(_owner);\n\n      if (tokenCount == 0) {\n          // Return an empty array\n          return new uint256[](0);\n      } else {\n          uint256[] memory result = new uint256[](tokenCount);\n          uint256 totalTruffles = truffles.length;\n          uint256 resultIndex = 0;\n\n          // We count on the fact that all cats have IDs starting at 1 and increasing\n          // sequentially up to the totalCat count.\n          uint256 truffleId;\n\n          for (truffleId = 0; truffleId < totalTruffles; truffleId++) {\n              if (ownerOf(truffleId) == _owner) {\n                  result[resultIndex] = truffleId;\n                  resultIndex++;\n              }\n          }\n\n          return result;\n      }\n  }\n}\n",
  "sourcePath": "/Users/bluer/Developer/truffle-u-cryptotruffles/contracts/CryptoTruffles.sol",
  "compiler": {
    "name": "solc",
    "version": "0.5.2+commit.1df8f40c.Emscripten.clang"
  },
  "schemaVersion": "3.0.0",
  "updatedAt": "2019-04-23T18:48:11.233Z",
  "devdoc": {
    "methods": {
      "approve(address,uint256)": {
        "details": "Approves another address to transfer the given token ID The zero address indicates there is no approved address. There can only be one approved address per token at a given time. Can only be called by the token owner or an approved operator.",
        "params": {
          "to": "address to be approved for the given token ID",
          "tokenId": "uint256 ID of the token to be approved"
        }
      },
      "balanceOf(address)": {
        "details": "Gets the balance of the specified address",
        "params": {
          "owner": "address to query the balance of"
        },
        "return": "uint256 representing the amount owned by the passed address"
      },
      "getApproved(uint256)": {
        "details": "Gets the approved address for a token ID, or zero if no address set Reverts if the token ID does not exist.",
        "params": {
          "tokenId": "uint256 ID of the token to query the approval of"
        },
        "return": "address currently approved for the given token ID"
      },
      "getTruffle(uint256)": {
        "details": "Gets the details of the requested Truffle",
        "params": {
          "_truffleId": "uint256 ID of the truffle"
        },
        "return": "title (name), color and emotion of the truffle"
      },
      "getTruffleIds()": {
        "details": "Returns the identifiers of the minted Truffles",
        "return": "array of uints"
      },
      "isApprovedForAll(address,address)": {
        "details": "Tells whether an operator is approved by a given owner",
        "params": {
          "operator": "operator address which you want to query the approval of",
          "owner": "owner address which you want to query the approval of"
        },
        "return": "bool whether the given operator is approved by the given owner"
      },
      "isOwner()": {
        "return": "true if `msg.sender` is the owner of the contract."
      },
      "mint(string,string,uint256)": {
        "details": "Mints a fresh new Truffle",
        "params": {
          "_color": "string (hex / css color name) of the truffle",
          "_emotion": "uint256 indidcating the emotion of the truffle",
          "_title": "string with the title / name of the truffle"
        }
      },
      "owner()": {
        "return": "the address of the owner."
      },
      "ownerOf(uint256)": {
        "details": "Gets the owner of the specified token ID",
        "params": {
          "tokenId": "uint256 ID of the token to query the owner of"
        },
        "return": "address currently marked as the owner of the given token ID"
      },
      "renounceOwnership()": {
        "details": "Allows the current owner to relinquish control of the contract. It will not be possible to call the functions with the `onlyOwner` modifier anymore."
      },
      "safeTransferFrom(address,address,uint256)": {
        "details": "Safely transfers the ownership of a given token ID to another address If the target address is a contract, it must implement `onERC721Received`, which is called upon a safe transfer, and return the magic value `bytes4(keccak256(\"onERC721Received(address,address,uint256,bytes)\"))`; otherwise, the transfer is reverted. Requires the msg.sender to be the owner, approved, or operator",
        "params": {
          "from": "current owner of the token",
          "to": "address to receive the ownership of the given token ID",
          "tokenId": "uint256 ID of the token to be transferred"
        }
      },
      "safeTransferFrom(address,address,uint256,bytes)": {
        "details": "Safely transfers the ownership of a given token ID to another address If the target address is a contract, it must implement `onERC721Received`, which is called upon a safe transfer, and return the magic value `bytes4(keccak256(\"onERC721Received(address,address,uint256,bytes)\"))`; otherwise, the transfer is reverted. Requires the msg.sender to be the owner, approved, or operator",
        "params": {
          "_data": "bytes data to send along with a safe transfer check",
          "from": "current owner of the token",
          "to": "address to receive the ownership of the given token ID",
          "tokenId": "uint256 ID of the token to be transferred"
        }
      },
      "setApprovalForAll(address,bool)": {
        "details": "Sets or unsets the approval of a given operator An operator is allowed to transfer all tokens of the sender on their behalf",
        "params": {
          "approved": "representing the status of the approval to be set",
          "to": "operator address to set the approval"
        }
      },
      "supportsInterface(bytes4)": {
        "details": "implement supportsInterface(bytes4) using a lookup table"
      },
      "tokensOfOwner(address)": {
        "details": "This method MUST NEVER be called by smart contract code. First, it's fairly  expensive (it walks the entire Truffle array looking for cats belonging to owner),  but it also returns a dynamic array, which is only supported for web3 calls, and  not contract-to-contract calls.",
        "params": {
          "_owner": "The owner whose Truffles we are interested in."
        }
      },
      "transferFrom(address,address,uint256)": {
        "details": "Transfers the ownership of a given token ID to another address Usage of this method is discouraged, use `safeTransferFrom` whenever possible Requires the msg.sender to be the owner, approved, or operator",
        "params": {
          "from": "current owner of the token",
          "to": "address to receive the ownership of the given token ID",
          "tokenId": "uint256 ID of the token to be transferred"
        }
      },
      "transferOwnership(address)": {
        "details": "Allows the current owner to transfer control of the contract to a newOwner.",
        "params": {
          "newOwner": "The address to transfer ownership to."
        }
      }
    }
  },
  "userdoc": {
    "methods": {
      "renounceOwnership()": {
        "notice": "Renouncing ownership will leave the contract without an owner, thereby removing any functionality that is only available to the owner."
      },
      "tokensOfOwner(address)": {
        "notice": " https://github.com/cryptocopycats/awesome-cryptokittiesReturns a list of all Truffle IDs assigned to an address."
      }
    }
  }
}